{
  "contractName": "Distribution",
  "abi": [
    {
      "inputs": [
        {
          "internalType": "uint256",
          "name": "rate_",
          "type": "uint256"
        },
        {
          "internalType": "address",
          "name": "wallet_",
          "type": "address"
        },
        {
          "internalType": "address",
          "name": "token_",
          "type": "address"
        }
      ],
      "stateMutability": "nonpayable",
      "type": "constructor"
    },
    {
      "anonymous": false,
      "inputs": [
        {
          "indexed": true,
          "internalType": "address",
          "name": "previousOwner",
          "type": "address"
        },
        {
          "indexed": true,
          "internalType": "address",
          "name": "newOwner",
          "type": "address"
        }
      ],
      "name": "OwnershipTransferred",
      "type": "event"
    },
    {
      "anonymous": false,
      "inputs": [
        {
          "indexed": true,
          "internalType": "address",
          "name": "purchaser",
          "type": "address"
        },
        {
          "indexed": true,
          "internalType": "address",
          "name": "beneficiary",
          "type": "address"
        },
        {
          "indexed": false,
          "internalType": "uint256",
          "name": "value",
          "type": "uint256"
        },
        {
          "indexed": false,
          "internalType": "uint256",
          "name": "amount",
          "type": "uint256"
        }
      ],
      "name": "TokenPurchase",
      "type": "event"
    },
    {
      "anonymous": false,
      "inputs": [
        {
          "indexed": true,
          "internalType": "address",
          "name": "caller",
          "type": "address"
        },
        {
          "indexed": false,
          "internalType": "uint256",
          "name": "amount",
          "type": "uint256"
        },
        {
          "indexed": false,
          "internalType": "string",
          "name": "reason",
          "type": "string"
        }
      ],
      "name": "incorrectFunCall",
      "type": "event"
    },
    {
      "stateMutability": "nonpayable",
      "type": "fallback"
    },
    {
      "inputs": [],
      "name": "_rate",
      "outputs": [
        {
          "internalType": "uint256",
          "name": "",
          "type": "uint256"
        }
      ],
      "stateMutability": "view",
      "type": "function",
      "constant": true
    },
    {
      "inputs": [],
      "name": "_token",
      "outputs": [
        {
          "internalType": "contract VToken",
          "name": "",
          "type": "address"
        }
      ],
      "stateMutability": "view",
      "type": "function",
      "constant": true
    },
    {
      "inputs": [],
      "name": "_wallet",
      "outputs": [
        {
          "internalType": "address payable",
          "name": "",
          "type": "address"
        }
      ],
      "stateMutability": "view",
      "type": "function",
      "constant": true
    },
    {
      "inputs": [],
      "name": "_weiRaised",
      "outputs": [
        {
          "internalType": "uint256",
          "name": "",
          "type": "uint256"
        }
      ],
      "stateMutability": "view",
      "type": "function",
      "constant": true
    },
    {
      "inputs": [],
      "name": "owner",
      "outputs": [
        {
          "internalType": "address",
          "name": "",
          "type": "address"
        }
      ],
      "stateMutability": "view",
      "type": "function",
      "constant": true
    },
    {
      "inputs": [],
      "name": "renounceOwnership",
      "outputs": [],
      "stateMutability": "nonpayable",
      "type": "function"
    },
    {
      "inputs": [
        {
          "internalType": "address",
          "name": "newOwner",
          "type": "address"
        }
      ],
      "name": "transferOwnership",
      "outputs": [],
      "stateMutability": "nonpayable",
      "type": "function"
    },
    {
      "stateMutability": "payable",
      "type": "receive",
      "payable": true
    },
    {
      "inputs": [
        {
          "internalType": "address",
          "name": "_beneficiary",
          "type": "address"
        }
      ],
      "name": "buyTokens",
      "outputs": [],
      "stateMutability": "payable",
      "type": "function",
      "payable": true
    },
    {
      "inputs": [],
      "name": "getEthFromSale",
      "outputs": [],
      "stateMutability": "nonpayable",
      "type": "function"
    },
    {
      "inputs": [],
      "name": "finishSale",
      "outputs": [],
      "stateMutability": "nonpayable",
      "type": "function"
    },
    {
      "inputs": [],
      "name": "killSale",
      "outputs": [],
      "stateMutability": "nonpayable",
      "type": "function"
    }
  ],
  "bytecode": "0x60806040523480156200001157600080fd5b5060405162001cbd38038062001cbd833981810160405281019062000037919062000233565b600062000049620001fd60201b60201c565b9050806000806101000a81548173ffffffffffffffffffffffffffffffffffffffff021916908373ffffffffffffffffffffffffffffffffffffffff1602179055508073ffffffffffffffffffffffffffffffffffffffff16600073ffffffffffffffffffffffffffffffffffffffff167f8be0079c531659141344cd1fd0a4f28419497f9722a3daafe3b4186f6b6457e060405160405180910390a35060008311620000f557600080fd5b600073ffffffffffffffffffffffffffffffffffffffff168273ffffffffffffffffffffffffffffffffffffffff1614156200013057600080fd5b600073ffffffffffffffffffffffffffffffffffffffff168173ffffffffffffffffffffffffffffffffffffffff1614156200016b57600080fd5b8260038190555081600260006101000a81548173ffffffffffffffffffffffffffffffffffffffff021916908373ffffffffffffffffffffffffffffffffffffffff16021790555080600160006101000a81548173ffffffffffffffffffffffffffffffffffffffff021916908373ffffffffffffffffffffffffffffffffffffffff16021790555050505062000306565b600033905090565b6000815190506200021681620002d2565b92915050565b6000815190506200022d81620002ec565b92915050565b6000806000606084860312156200024f576200024e620002cd565b5b60006200025f868287016200021c565b9350506020620002728682870162000205565b9250506040620002858682870162000205565b9150509250925092565b60006200029c82620002a3565b9050919050565b600073ffffffffffffffffffffffffffffffffffffffff82169050919050565b6000819050919050565b600080fd5b620002dd816200028f565b8114620002e957600080fd5b50565b620002f781620002c3565b81146200030357600080fd5b50565b6119a780620003166000396000f3fe6080604052600436106100a05760003560e01c80638da5cb5b116100645780638da5cb5b146101f45780638f86f5ea1461021f57806394a5aa8d14610236578063ec8ac4d814610261578063ecd0c0c31461027d578063f2fde38b146102a8576100f8565b8063400f364914610159578063610757e414610170578063715018a61461019b57806383bebced146101b257806388eaea07146101dd576100f8565b366100f8573373ffffffffffffffffffffffffffffffffffffffff167fd595977e659fa37f2bb57fa96ec9646345de31425b2cff2022faf5023df3b02a346040516100eb9190611425565b60405180910390a2600080fd5b34801561010457600080fd5b503373ffffffffffffffffffffffffffffffffffffffff167fd595977e659fa37f2bb57fa96ec9646345de31425b2cff2022faf5023df3b02a600060405161014c919061135a565b60405180910390a2600080fd5b34801561016557600080fd5b5061016e6102d1565b005b34801561017c57600080fd5b5061018561039d565b60405161019291906112fb565b60405180910390f35b3480156101a757600080fd5b506101b06103c3565b005b3480156101be57600080fd5b506101c76104fd565b6040516101d4919061140a565b60405180910390f35b3480156101e957600080fd5b506101f2610503565b005b34801561020057600080fd5b5061020961068c565b60405161021691906112e0565b60405180910390f35b34801561022b57600080fd5b506102346106b5565b005b34801561024257600080fd5b5061024b610957565b604051610258919061140a565b60405180910390f35b61027b600480360381019061027691906110d1565b61095d565b005b34801561028957600080fd5b50610292610b55565b60405161029f919061133f565b60405180910390f35b3480156102b457600080fd5b506102cf60048036038101906102ca91906110d1565b610b7b565b005b6102d9610d24565b73ffffffffffffffffffffffffffffffffffffffff166102f761068c565b73ffffffffffffffffffffffffffffffffffffffff161461034d576040517f08c379a0000000000000000000000000000000000000000000000000000000008152600401610344906113ca565b60405180910390fd5b61035561068c565b73ffffffffffffffffffffffffffffffffffffffff166108fc479081150290604051600060405180830381858888f1935050505015801561039a573d6000803e3d6000fd5b50565b600260009054906101000a900473ffffffffffffffffffffffffffffffffffffffff1681565b6103cb610d24565b73ffffffffffffffffffffffffffffffffffffffff166103e961068c565b73ffffffffffffffffffffffffffffffffffffffff161461043f576040517f08c379a0000000000000000000000000000000000000000000000000000000008152600401610436906113ca565b60405180910390fd5b600073ffffffffffffffffffffffffffffffffffffffff1660008054906101000a900473ffffffffffffffffffffffffffffffffffffffff1673ffffffffffffffffffffffffffffffffffffffff167f8be0079c531659141344cd1fd0a4f28419497f9722a3daafe3b4186f6b6457e060405160405180910390a360008060006101000a81548173ffffffffffffffffffffffffffffffffffffffff021916908373ffffffffffffffffffffffffffffffffffffffff160217905550565b60035481565b61050b610d24565b73ffffffffffffffffffffffffffffffffffffffff1661052961068c565b73ffffffffffffffffffffffffffffffffffffffff161461057f576040517f08c379a0000000000000000000000000000000000000000000000000000000008152600401610576906113ca565b60405180910390fd5b6000600160009054906101000a900473ffffffffffffffffffffffffffffffffffffffff1673ffffffffffffffffffffffffffffffffffffffff166370a08231306040518263ffffffff1660e01b81526004016105dc91906112e0565b60206040518083038186803b1580156105f457600080fd5b505afa158015610608573d6000803e3d6000fd5b505050506040513d601f19601f8201168201806040525081019061062c919061112b565b1461066c576040517f08c379a0000000000000000000000000000000000000000000000000000000008152600401610663906113ea565b60405180910390fd5b61067461068c565b73ffffffffffffffffffffffffffffffffffffffff16ff5b60008060009054906101000a900473ffffffffffffffffffffffffffffffffffffffff16905090565b6106bd610d24565b73ffffffffffffffffffffffffffffffffffffffff166106db61068c565b73ffffffffffffffffffffffffffffffffffffffff1614610731576040517f08c379a0000000000000000000000000000000000000000000000000000000008152600401610728906113ca565b60405180910390fd5b600160009054906101000a900473ffffffffffffffffffffffffffffffffffffffff1673ffffffffffffffffffffffffffffffffffffffff166370a08231306040518263ffffffff1660e01b815260040161078c91906112e0565b60206040518083038186803b1580156107a457600080fd5b505afa1580156107b8573d6000803e3d6000fd5b505050506040513d601f19601f820116820180604052508101906107dc919061112b565b6108906103e8600160009054906101000a900473ffffffffffffffffffffffffffffffffffffffff1673ffffffffffffffffffffffffffffffffffffffff1663355274ea6040518163ffffffff1660e01b815260040160206040518083038186803b15801561084a57600080fd5b505afa15801561085e573d6000803e3d6000fd5b505050506040513d601f19601f82011682018060405250810190610882919061112b565b610d2c90919063ffffffff16565b1161089a57600080fd5b6109556108a561068c565b600160009054906101000a900473ffffffffffffffffffffffffffffffffffffffff1673ffffffffffffffffffffffffffffffffffffffff166370a08231306040518263ffffffff1660e01b815260040161090091906112e0565b60206040518083038186803b15801561091857600080fd5b505afa15801561092c573d6000803e3d6000fd5b505050506040513d601f19601f82011682018060405250810190610950919061112b565b610d42565b565b60045481565b600034905061096c8282610df6565b600061097782610e42565b90506000600160009054906101000a900473ffffffffffffffffffffffffffffffffffffffff1673ffffffffffffffffffffffffffffffffffffffff166370a08231306040518263ffffffff1660e01b81526004016109d691906112e0565b60206040518083038186803b1580156109ee57600080fd5b505afa158015610a02573d6000803e3d6000fd5b505050506040513d601f19601f82011682018060405250810190610a26919061112b565b90506000610a716040518060400160405280601781526020017f436f6e74726163742063616e206f6e6c792073656c6c20000000000000000000815250610a6c84610e60565b610fc1565b9050828210158190610ab9576040517f08c379a0000000000000000000000000000000000000000000000000000000008152600401610ab09190611388565b60405180910390fd5b50610acf84600454610fed90919063ffffffff16565b600481905550610adf8584611003565b8473ffffffffffffffffffffffffffffffffffffffff163373ffffffffffffffffffffffffffffffffffffffff167f623b3804fa71d67900d064613da8f94b9617215ee90799290593e1745087ad188686604051610b3e929190611453565b60405180910390a3610b4e611011565b5050505050565b600160009054906101000a900473ffffffffffffffffffffffffffffffffffffffff1681565b610b83610d24565b73ffffffffffffffffffffffffffffffffffffffff16610ba161068c565b73ffffffffffffffffffffffffffffffffffffffff1614610bf7576040517f08c379a0000000000000000000000000000000000000000000000000000000008152600401610bee906113ca565b60405180910390fd5b600073ffffffffffffffffffffffffffffffffffffffff168173ffffffffffffffffffffffffffffffffffffffff161415610c67576040517f08c379a0000000000000000000000000000000000000000000000000000000008152600401610c5e906113aa565b60405180910390fd5b8073ffffffffffffffffffffffffffffffffffffffff1660008054906101000a900473ffffffffffffffffffffffffffffffffffffffff1673ffffffffffffffffffffffffffffffffffffffff167f8be0079c531659141344cd1fd0a4f28419497f9722a3daafe3b4186f6b6457e060405160405180910390a3806000806101000a81548173ffffffffffffffffffffffffffffffffffffffff021916908373ffffffffffffffffffffffffffffffffffffffff16021790555050565b600033905090565b60008183610d3a91906114f9565b905092915050565b600160009054906101000a900473ffffffffffffffffffffffffffffffffffffffff1673ffffffffffffffffffffffffffffffffffffffff1663a9059cbb83836040518363ffffffff1660e01b8152600401610d9f929190611316565b602060405180830381600087803b158015610db957600080fd5b505af1158015610dcd573d6000803e3d6000fd5b505050506040513d601f19601f82011682018060405250810190610df191906110fe565b505050565b600073ffffffffffffffffffffffffffffffffffffffff168273ffffffffffffffffffffffffffffffffffffffff161415610e3057600080fd5b6000811415610e3e57600080fd5b5050565b6000610e596003548361107c90919063ffffffff16565b9050919050565b60606000821415610ea8576040518060400160405280600181526020017f30000000000000000000000000000000000000000000000000000000000000008152509050610fbc565b600082905060005b60008214610eda578080610ec39061167b565b915050600a82610ed391906114f9565b9150610eb0565b60008167ffffffffffffffff811115610ef657610ef5611782565b5b6040519080825280601f01601f191660200182016040528015610f285781602001600182028036833780820191505090505b5090505b60008514610fb557600182610f419190611584565b9150600a85610f5091906116c4565b6030610f5c91906114a3565b60f81b818381518110610f7257610f71611753565b5b60200101907effffffffffffffffffffffffffffffffffffffffffffffffffffffffffffff1916908160001a905350600a85610fae91906114f9565b9450610f2c565b8093505050505b919050565b60608282604051602001610fd69291906112bc565b604051602081830303815290604052905092915050565b60008183610ffb91906114a3565b905092915050565b61100d8282610d42565b5050565b600260009054906101000a900473ffffffffffffffffffffffffffffffffffffffff1673ffffffffffffffffffffffffffffffffffffffff166108fc349081150290604051600060405180830381858888f19350505050158015611079573d6000803e3d6000fd5b50565b6000818361108a919061152a565b905092915050565b6000813590506110a18161192c565b92915050565b6000815190506110b681611943565b92915050565b6000815190506110cb8161195a565b92915050565b6000602082840312156110e7576110e66117b1565b5b60006110f584828501611092565b91505092915050565b600060208284031215611114576111136117b1565b5b6000611122848285016110a7565b91505092915050565b600060208284031215611141576111406117b1565b5b600061114f848285016110bc565b91505092915050565b611161816115ca565b82525050565b611170816115b8565b82525050565b61117f81611612565b82525050565b61118e81611636565b82525050565b600061119f8261147c565b6111a98185611487565b93506111b9818560208601611648565b6111c2816117b6565b840191505092915050565b60006111d88261147c565b6111e28185611498565b93506111f2818560208601611648565b80840191505092915050565b600061120b602a83611487565b9150611216826117c7565b604082019050919050565b600061122e602683611487565b915061123982611816565b604082019050919050565b6000611251602083611487565b915061125c82611865565b602082019050919050565b6000611274603683611487565b915061127f8261188e565b604082019050919050565b6000611297602e83611487565b91506112a2826118dd565b604082019050919050565b6112b681611608565b82525050565b60006112c882856111cd565b91506112d482846111cd565b91508190509392505050565b60006020820190506112f56000830184611167565b92915050565b60006020820190506113106000830184611158565b92915050565b600060408201905061132b6000830185611167565b61133860208301846112ad565b9392505050565b60006020820190506113546000830184611176565b92915050565b600060408201905061136f6000830184611185565b8181036020830152611380816111fe565b905092915050565b600060208201905081810360008301526113a28184611194565b905092915050565b600060208201905081810360008301526113c381611221565b9050919050565b600060208201905081810360008301526113e381611244565b9050919050565b600060208201905081810360008301526114038161128a565b9050919050565b600060208201905061141f60008301846112ad565b92915050565b600060408201905061143a60008301846112ad565b818103602083015261144b81611267565b905092915050565b600060408201905061146860008301856112ad565b61147560208301846112ad565b9392505050565b600081519050919050565b600082825260208201905092915050565b600081905092915050565b60006114ae82611608565b91506114b983611608565b9250827fffffffffffffffffffffffffffffffffffffffffffffffffffffffffffffffff038211156114ee576114ed6116f5565b5b828201905092915050565b600061150482611608565b915061150f83611608565b92508261151f5761151e611724565b5b828204905092915050565b600061153582611608565b915061154083611608565b9250817fffffffffffffffffffffffffffffffffffffffffffffffffffffffffffffffff0483118215151615611579576115786116f5565b5b828202905092915050565b600061158f82611608565b915061159a83611608565b9250828210156115ad576115ac6116f5565b5b828203905092915050565b60006115c3826115e8565b9050919050565b60006115d5826115e8565b9050919050565b60008115159050919050565b600073ffffffffffffffffffffffffffffffffffffffff82169050919050565b6000819050919050565b600061161d82611624565b9050919050565b600061162f826115e8565b9050919050565b600061164182611608565b9050919050565b60005b8381101561166657808201518184015260208101905061164b565b83811115611675576000848401525b50505050565b600061168682611608565b91507fffffffffffffffffffffffffffffffffffffffffffffffffffffffffffffffff8214156116b9576116b86116f5565b5b600182019050919050565b60006116cf82611608565b91506116da83611608565b9250826116ea576116e9611724565b5b828206905092915050565b7f4e487b7100000000000000000000000000000000000000000000000000000000600052601160045260246000fd5b7f4e487b7100000000000000000000000000000000000000000000000000000000600052601260045260246000fd5b7f4e487b7100000000000000000000000000000000000000000000000000000000600052603260045260246000fd5b7f4e487b7100000000000000000000000000000000000000000000000000000000600052604160045260246000fd5b600080fd5b6000601f19601f8301169050919050565b7f496e636f72726563742066756e6374696f6e2063616c6c65642c20726576657260008201527f74696e6720737461746500000000000000000000000000000000000000000000602082015250565b7f4f776e61626c653a206e6577206f776e657220697320746865207a65726f206160008201527f6464726573730000000000000000000000000000000000000000000000000000602082015250565b7f4f776e61626c653a2063616c6c6572206973206e6f7420746865206f776e6572600082015250565b7f496e636f72726563742066756e6374696f6e2063616c6c65642c20726576657260008201527f74696e6720737461746520616e64207061796d656e7400000000000000000000602082015250565b7f53616c65206e6f7420636f6d706c6574652c2066756e6374696f6e2063616e6e60008201527f6f74206265206578656375746564000000000000000000000000000000000000602082015250565b611935816115b8565b811461194057600080fd5b50565b61194c816115dc565b811461195757600080fd5b50565b61196381611608565b811461196e57600080fd5b5056fea2646970667358221220d71aeb8a03ac005fd532648dc4e87036a8846ca723c956fc57c3f28cde3b97f564736f6c63430008060033",
  "immutableReferences": {},
  "source": "// SPDX-License-Identifier: MIT\r\n\r\npragma solidity >=0.7.0 <0.9.0;\r\n\r\nimport \"@openzeppelin/contracts/access/Ownable.sol\";\r\nimport \"@openzeppelin/contracts/utils/math/SafeMath.sol\";\r\nimport \"./VToken.sol\";\r\nimport {Strings} from \"@openzeppelin/contracts/utils/Strings.sol\";\r\n\r\ncontract Distribution is Ownable {\r\n\r\n    using SafeMath for uint256;\r\n\r\n    VToken public _token;\r\n    address payable public _wallet;\r\n    uint256 public _rate;\r\n    uint256 public _weiRaised;\r\n\r\n    /**\r\n    * Event for token purchase logging\r\n    * @param purchaser who paid for the tokens\r\n    * @param beneficiary who got the tokens\r\n    * @param value weis paid for purchase\r\n    * @param amount amount of tokens purchased\r\n    */\r\n    event TokenPurchase(\r\n        address indexed purchaser,\r\n        address indexed beneficiary,\r\n        uint256 value,\r\n        uint256 amount\r\n    );\r\n\r\n    /*\r\n    * Don't call any function on fallback\r\n    * just report the incorrect function call\r\n    */\r\n    event incorrectFunCall(\r\n        address indexed caller,\r\n        uint256 amount,\r\n        string reason\r\n    );\r\n\r\n    /**\r\n    * @param rate_ Number of token units a buyer gets per wei\r\n    * @param wallet_ Address where collected funds will be forwarded to\r\n    * @param token_ Address of the token being sold\r\n    */\r\n    constructor(uint256 rate_, address wallet_, address token_) {\r\n        require(rate_ > 0);\r\n        require(wallet_ != address(0));\r\n        require(address(token_) != address(0));\r\n\r\n        _rate = rate_;\r\n        _wallet = payable(wallet_);\r\n        _token = VToken(payable(token_));\r\n    }\r\n\r\n    /**\r\n    * @dev low level token purchase\r\n    * @param _beneficiary Address performing the token purchase\r\n    */\r\n    function buyTokens(address _beneficiary) public payable {\r\n\r\n        uint256 weiAmount = msg.value;\r\n        _preValidatePurchase(_beneficiary, weiAmount);\r\n\r\n        // calculate token amount to be created\r\n        uint256 tokens = _getTokenAmount(weiAmount);\r\n\r\n        // ensure contract has enough tokens to sell\r\n        uint256 balance = _token.balanceOf(address(this));\r\n        string memory notEnoughBalance = concat(\"Contract can only sell \", (Strings.toString(balance)));\r\n        require(balance >= tokens, notEnoughBalance);\r\n\r\n        // update state\r\n        _weiRaised = _weiRaised.add(weiAmount);\r\n\r\n        _processPurchase(_beneficiary, tokens);\r\n        emit TokenPurchase(\r\n        msg.sender,\r\n        _beneficiary,\r\n        weiAmount,\r\n        tokens\r\n        );\r\n\r\n        _forwardFunds();\r\n    }\r\n\r\n    // -----------------------------------------\r\n    // Internal interface (extensible)\r\n    // -----------------------------------------\r\n\r\n    /**\r\n    * @dev Validation of an incoming purchase. Use require statements to revert state when conditions are not met. Use super to concatenate validations.\r\n    * @param _beneficiary Address performing the token purchase\r\n    * @param _weiAmount Value in wei involved in the purchase\r\n    */\r\n    function _preValidatePurchase(\r\n        address _beneficiary,\r\n        uint256 _weiAmount\r\n    )\r\n        internal pure\r\n    {\r\n        require(_beneficiary != address(0));\r\n        require(_weiAmount != 0);\r\n    }\r\n\r\n    /**\r\n    * @dev Source of tokens. Override this method to modify the way in which the crowdsale ultimately gets and sends its tokens.\r\n    * @param _beneficiary Address performing the token purchase\r\n    * @param _tokenAmount Number of tokens to be emitted\r\n    */\r\n    function _deliverTokens(\r\n        address _beneficiary,\r\n        uint256 _tokenAmount\r\n    )\r\n        internal\r\n    {\r\n        _token.transfer(_beneficiary, _tokenAmount);\r\n    }\r\n\r\n    /**\r\n    * @dev Executed when a purchase has been validated and is ready to be executed. Not necessarily emits/sends tokens.\r\n    * @param _beneficiary Address receiving the tokens\r\n    * @param _tokenAmount Number of tokens to be purchased\r\n    */\r\n    function _processPurchase(\r\n        address _beneficiary,\r\n        uint256 _tokenAmount\r\n    )\r\n        internal\r\n    {\r\n        _deliverTokens(_beneficiary, _tokenAmount);\r\n    }\r\n\r\n    /**\r\n    * @dev Override to extend the way in which ether is converted to tokens.\r\n    * @param _weiAmount Value in wei to be converted into tokens\r\n    * @return Number of tokens that can be purchased with the specified _weiAmount\r\n    */\r\n    function _getTokenAmount(uint256 _weiAmount)\r\n        internal view returns (uint256)\r\n    {\r\n        return _weiAmount.mul(_rate);\r\n    }\r\n\r\n    // -----------------------------------------\r\n    // Sale completion commands\r\n    // -----------------------------------------\r\n\r\n    /**\r\n    * @dev Determines how ETH is stored/forwarded on purchases.\r\n    */\r\n    function _forwardFunds() internal {\r\n        _wallet.transfer(msg.value);\r\n    }\r\n\r\n    /**\r\n     * Should not be necessary, but in case some eth is left in contract\r\n     */\r\n    function getEthFromSale() external onlyOwner {\r\n        payable(owner()).transfer(address(this).balance);\r\n    }\r\n\r\n    /**\r\n     * If there is less than 0.1% of total tokens remaining, send to \r\n     * contract owner so the distribution contract may be destroyed\r\n     */\r\n    function finishSale() external onlyOwner saleNearComplete {\r\n        _deliverTokens(owner(), _token.balanceOf(address(this)));\r\n    }\r\n\r\n    modifier saleNearComplete() {\r\n        require(_token.cap().div(1000) > _token.balanceOf(address(this)));\r\n        _;\r\n    }\r\n\r\n    modifier saleComplete() {\r\n        require(_token.balanceOf(address(this)) == 0, \"Sale not complete, function cannot be executed\");\r\n        _;\r\n    }\r\n\r\n    function killSale() public onlyOwner saleComplete {\r\n        selfdestruct(payable(owner()));\r\n    }\r\n\r\n    receive() external payable{\r\n        emit incorrectFunCall(\r\n            msg.sender,\r\n            msg.value,\r\n            \"Incorrect function called, reverting state and payment\"\r\n        );\r\n        revert();\r\n    }\r\n   \r\n    fallback() external {\r\n        emit incorrectFunCall(\r\n            msg.sender,\r\n            0,\r\n            \"Incorrect function called, reverting state\"\r\n        );\r\n        revert();\r\n    }\r\n\r\n    // -----------------------------------------\r\n    // Helper functions for basic manipulation\r\n    // -----------------------------------------\r\n\r\n    function concat(\r\n        string memory a,\r\n        string memory b)\r\n        internal \r\n        pure\r\n        returns(string memory) {\r\n            return string(abi.encodePacked(a, b));\r\n    }\r\n\r\n}",
  "sourcePath": "C:/Blockchain/Blockchain/First DAPP/contracts/Distribution.sol",
  "compiler": {
    "name": "solc",
    "version": "0.8.6+commit.11564f7e.Emscripten.clang"
  },
  "schemaVersion": "3.4.1",
  "updatedAt": "2021-06-23T16:20:59.600Z",
  "networkType": "ethereum",
  "devdoc": {
    "events": {
      "TokenPurchase(address,address,uint256,uint256)": {
        "params": {
          "amount": "amount of tokens purchased",
          "beneficiary": "who got the tokens",
          "purchaser": "who paid for the tokens",
          "value": "weis paid for purchase"
        }
      }
    },
    "kind": "dev",
    "methods": {
      "buyTokens(address)": {
        "details": "low level token purchase",
        "params": {
          "_beneficiary": "Address performing the token purchase"
        }
      },
      "constructor": {
        "params": {
          "rate_": "Number of token units a buyer gets per wei",
          "token_": "Address of the token being sold",
          "wallet_": "Address where collected funds will be forwarded to"
        }
      },
      "owner()": {
        "details": "Returns the address of the current owner."
      },
      "renounceOwnership()": {
        "details": "Leaves the contract without owner. It will not be possible to call `onlyOwner` functions anymore. Can only be called by the current owner. NOTE: Renouncing ownership will leave the contract without an owner, thereby removing any functionality that is only available to the owner."
      },
      "transferOwnership(address)": {
        "details": "Transfers ownership of the contract to a new account (`newOwner`). Can only be called by the current owner."
      }
    },
    "version": 1
  },
  "userdoc": {
    "events": {
      "TokenPurchase(address,address,uint256,uint256)": {
        "notice": "Event for token purchase logging"
      }
    },
    "kind": "user",
    "methods": {
      "finishSale()": {
        "notice": "If there is less than 0.1% of total tokens remaining, send to  contract owner so the distribution contract may be destroyed"
      },
      "getEthFromSale()": {
        "notice": "Should not be necessary, but in case some eth is left in contract"
      }
    },
    "version": 1
  }
}