{
  "contractName": "Voting",
  "abi": [
    {
      "inputs": [
        {
          "internalType": "address",
          "name": "tokenAddr_",
          "type": "address"
        }
      ],
      "stateMutability": "nonpayable",
      "type": "constructor"
    },
    {
      "inputs": [],
      "name": "_openTime",
      "outputs": [
        {
          "internalType": "uint256",
          "name": "",
          "type": "uint256"
        }
      ],
      "stateMutability": "view",
      "type": "function",
      "constant": true
    },
    {
      "inputs": [],
      "name": "_proposal",
      "outputs": [
        {
          "internalType": "bytes32",
          "name": "name",
          "type": "bytes32"
        },
        {
          "internalType": "uint256",
          "name": "voteYes",
          "type": "uint256"
        },
        {
          "internalType": "uint256",
          "name": "voteNo",
          "type": "uint256"
        }
      ],
      "stateMutability": "view",
      "type": "function",
      "constant": true
    },
    {
      "inputs": [],
      "name": "_proposer",
      "outputs": [
        {
          "internalType": "address",
          "name": "",
          "type": "address"
        }
      ],
      "stateMutability": "view",
      "type": "function",
      "constant": true
    },
    {
      "inputs": [],
      "name": "_tokenAddr",
      "outputs": [
        {
          "internalType": "address",
          "name": "",
          "type": "address"
        }
      ],
      "stateMutability": "view",
      "type": "function",
      "constant": true
    },
    {
      "inputs": [
        {
          "internalType": "address",
          "name": "",
          "type": "address"
        }
      ],
      "name": "_voters",
      "outputs": [
        {
          "internalType": "uint256",
          "name": "power",
          "type": "uint256"
        },
        {
          "internalType": "bool",
          "name": "voted",
          "type": "bool"
        },
        {
          "internalType": "bool",
          "name": "votedYes",
          "type": "bool"
        }
      ],
      "stateMutability": "view",
      "type": "function",
      "constant": true
    },
    {
      "inputs": [],
      "name": "addVoter",
      "outputs": [],
      "stateMutability": "nonpayable",
      "type": "function"
    },
    {
      "inputs": [
        {
          "internalType": "bool",
          "name": "yes",
          "type": "bool"
        }
      ],
      "name": "vote",
      "outputs": [],
      "stateMutability": "nonpayable",
      "type": "function"
    },
    {
      "inputs": [],
      "name": "proposalWin",
      "outputs": [
        {
          "internalType": "bool",
          "name": "",
          "type": "bool"
        }
      ],
      "stateMutability": "view",
      "type": "function",
      "constant": true
    },
    {
      "inputs": [],
      "name": "giveRewards",
      "outputs": [],
      "stateMutability": "nonpayable",
      "type": "function"
    }
  ],
  "bytecode": "0x608060405234801561001057600080fd5b50604051610d17380380610d1783398181016040528101906100329190610150565b80600160006101000a81548173ffffffffffffffffffffffffffffffffffffffff021916908373ffffffffffffffffffffffffffffffffffffffff16021790555042600281905550336000806101000a81548173ffffffffffffffffffffffffffffffffffffffff021916908373ffffffffffffffffffffffffffffffffffffffff16021790555060405180606001604052807f5445535400000000000000000000000000000000000000000000000000000000815260200160008152602001600081525060066000820151816000015560208201518160010155604082015181600201559050506000600960006101000a81548160ff021916908315150217905550506101cb565b60008151905061014a816101b4565b92915050565b600060208284031215610166576101656101af565b5b60006101748482850161013b565b91505092915050565b60006101888261018f565b9050919050565b600073ffffffffffffffffffffffffffffffffffffffff82169050919050565b600080fd5b6101bd8161017d565b81146101c857600080fd5b50565b610b3d806101da6000396000f3fe608060405234801561001057600080fd5b50600436106100935760003560e01c806388b1e1f51161006657806388b1e1f5146100e65780639029e1cf146101045780639ab804e4146101365780639ee750f314610154578063dd2f35bb1461017257610093565b806343cfc4eb146100985780634b9f5c98146100b65780635d26b838146100d25780635f9bb8e3146100dc575b600080fd5b6100a0610192565b6040516100ad9190610830565b60405180910390f35b6100d060048036038101906100cb9190610739565b6101d1565b005b6100da610405565b005b6100e46104c2565b005b6100ee610621565b6040516100fb91906108c2565b60405180910390f35b61011e6004803603810190610119919061070c565b610627565b60405161012d939291906108dd565b60405180910390f35b61013e61066b565b60405161014b9190610815565b60405180910390f35b61015c610691565b6040516101699190610815565b60405180910390f35b61017a6106b5565b6040516101899392919061084b565b60405180910390f35b6000690a968163f0a57b4000006006600201546006600101546101b59190610925565b116101bf57600080fd5b60066002015460066001015411905090565b6000600360003373ffffffffffffffffffffffffffffffffffffffff1673ffffffffffffffffffffffffffffffffffffffff1681526020019081526020016000209050683635c9adc5dea0000081600001541015610264576040517f08c379a000000000000000000000000000000000000000000000000000000000815260040161025b90610882565b60405180910390fd5b8060010160009054906101000a900460ff16156102b6576040517f08c379a00000000000000000000000000000000000000000000000000000000081526004016102ad906108a2565b60405180910390fd5b60018160010160006101000a81548160ff021916908315150217905550818160010160016101000a81548160ff021916908315150217905550811561037d5780600001546006600101600082825461030e9190610925565b925050819055506004339080600181540180825580915050600190039060005260206000200160009091909190916101000a81548173ffffffffffffffffffffffffffffffffffffffff021916908373ffffffffffffffffffffffffffffffffffffffff160217905550610401565b8060000154600660020160008282546103969190610925565b925050819055506005339080600181540180825580915050600190039060005260206000200160009091909190916101000a81548173ffffffffffffffffffffffffffffffffffffffff021916908373ffffffffffffffffffffffffffffffffffffffff1602179055505b5050565b690a968163f0a57b4000006006600201546006600101546104269190610925565b1161043057600080fd5b600960009054906101000a900460ff161561044a57600080fd5b6001600960006101000a81548160ff02191690831515021790555061046d610192565b1561049b5760005b60048054905081101561049557808061048d906109cd565b915050610475565b506104c0565b60005b6004805490508110156104be5780806104b6906109cd565b91505061049e565b505b565b6000600160009054906101000a900473ffffffffffffffffffffffffffffffffffffffff16905060405180606001604052808273ffffffffffffffffffffffffffffffffffffffff166370a08231336040518263ffffffff1660e01b815260040161052d9190610815565b60206040518083038186803b15801561054557600080fd5b505afa158015610559573d6000803e3d6000fd5b505050506040513d601f19601f8201168201806040525081019061057d9190610766565b815260200160001515815260200160001515815250600360003373ffffffffffffffffffffffffffffffffffffffff1673ffffffffffffffffffffffffffffffffffffffff1681526020019081526020016000206000820151816000015560208201518160010160006101000a81548160ff02191690831515021790555060408201518160010160016101000a81548160ff02191690831515021790555090505050565b60025481565b60036020528060005260406000206000915090508060000154908060010160009054906101000a900460ff16908060010160019054906101000a900460ff16905083565b600160009054906101000a900473ffffffffffffffffffffffffffffffffffffffff1681565b60008054906101000a900473ffffffffffffffffffffffffffffffffffffffff1681565b60068060000154908060010154908060020154905083565b6000813590506106dc81610ac2565b92915050565b6000813590506106f181610ad9565b92915050565b60008151905061070681610af0565b92915050565b60006020828403121561072257610721610a45565b5b6000610730848285016106cd565b91505092915050565b60006020828403121561074f5761074e610a45565b5b600061075d848285016106e2565b91505092915050565b60006020828403121561077c5761077b610a45565b5b600061078a848285016106f7565b91505092915050565b61079c8161097b565b82525050565b6107ab8161098d565b82525050565b6107ba81610999565b82525050565b60006107cd601f83610914565b91506107d882610a4a565b602082019050919050565b60006107f0602883610914565b91506107fb82610a73565b604082019050919050565b61080f816109c3565b82525050565b600060208201905061082a6000830184610793565b92915050565b600060208201905061084560008301846107a2565b92915050565b600060608201905061086060008301866107b1565b61086d6020830185610806565b61087a6040830184610806565b949350505050565b6000602082019050818103600083015261089b816107c0565b9050919050565b600060208201905081810360008301526108bb816107e3565b9050919050565b60006020820190506108d76000830184610806565b92915050565b60006060820190506108f26000830186610806565b6108ff60208301856107a2565b61090c60408301846107a2565b949350505050565b600082825260208201905092915050565b6000610930826109c3565b915061093b836109c3565b9250827fffffffffffffffffffffffffffffffffffffffffffffffffffffffffffffffff038211156109705761096f610a16565b5b828201905092915050565b6000610986826109a3565b9050919050565b60008115159050919050565b6000819050919050565b600073ffffffffffffffffffffffffffffffffffffffff82169050919050565b6000819050919050565b60006109d8826109c3565b91507fffffffffffffffffffffffffffffffffffffffffffffffffffffffffffffffff821415610a0b57610a0a610a16565b5b600182019050919050565b7f4e487b7100000000000000000000000000000000000000000000000000000000600052601160045260246000fd5b600080fd5b7f566f74657220646f6573206e6f742068617665203130303020746f6b656e7300600082015250565b7f53656e6465722068617320616c726561647920766f746564206f6e207468652060008201527f70726f706f73616c000000000000000000000000000000000000000000000000602082015250565b610acb8161097b565b8114610ad657600080fd5b50565b610ae28161098d565b8114610aed57600080fd5b50565b610af9816109c3565b8114610b0457600080fd5b5056fea26469706673582212200c4a8ebe17cddec82e0937ab554e1d1ab9b3096fa8a089938640b6ade00d710364736f6c63430008060033",
  "immutableReferences": {},
  "source": "// SPDX-License-Identifier: MIT\r\n\r\npragma solidity >=0.7.0 <0.9.0;\r\n\r\nimport \"./VToken.sol\";\r\n\r\ncontract Voting {\r\n   \r\n    struct Proposal {\r\n        bytes32 name;\r\n        uint voteYes;\r\n        uint voteNo;\r\n    }\r\n   \r\n    struct Voter {\r\n        uint power;\r\n        bool voted;\r\n        bool votedYes;\r\n    }\r\n   \r\n    address public _proposer;\r\n    address public _tokenAddr;\r\n    uint public _openTime;\r\n    mapping(address => Voter) public _voters;\r\n    address[] private yesVoters;\r\n    address[] private noVoters;\r\n    Proposal public _proposal;\r\n    bool private _rewardsGiven;\r\n   \r\n    constructor (\r\n        address tokenAddr_\r\n    ) {\r\n        _tokenAddr = tokenAddr_;\r\n        _openTime = block.timestamp;\r\n        _proposer = msg.sender;\r\n        _proposal = Proposal({name: \"TEST\", voteYes: 0, voteNo: 0});\r\n        _rewardsGiven = false;\r\n    }\r\n   \r\n    function addVoter() public {\r\n        VToken token = VToken(payable(_tokenAddr));\r\n        _voters[msg.sender] = Voter({\r\n            power: token.balanceOf(msg.sender),\r\n            voted: false,\r\n            votedYes: false\r\n        });\r\n    }\r\n   \r\n    function vote(bool yes) public {\r\n        Voter storage sender = _voters[msg.sender];\r\n        require(sender.power >= 1000 * 10 ** 18, \"Voter does not have 1000 tokens\");\r\n        require(!sender.voted, \"Sender has already voted on the proposal\");\r\n        sender.voted = true;\r\n        sender.votedYes = yes;\r\n        if (yes){\r\n            _proposal.voteYes += sender.power;\r\n            yesVoters.push(msg.sender);\r\n        } else {\r\n            _proposal.voteNo += sender.power;\r\n            noVoters.push(msg.sender);\r\n        }\r\n    }\r\n   \r\n    function proposalWin() public voteComplete view returns(bool) {\r\n        return _proposal.voteYes > _proposal.voteNo;\r\n    }\r\n   \r\n    function giveRewards() public voteComplete rewardsNotGiven {\r\n        _rewardsGiven = true;\r\n        if (proposalWin()) {\r\n            for (uint i = 0; i < yesVoters.length; i++) {\r\n                //add 1 percent of tokens somehow\r\n            }\r\n        } else {\r\n            for (uint i = 0; i < yesVoters.length; i++) {\r\n                //add 1 percent of tokens somehow\r\n            }\r\n        }\r\n    }\r\n   \r\n    modifier rewardsNotGiven() {\r\n        require(!_rewardsGiven);\r\n        _;\r\n    }\r\n   \r\n    modifier voteComplete() {\r\n        require(_proposal.voteYes + _proposal.voteNo > 50000 * 10**18);\r\n        //require that sufficient time has passed\r\n        _;\r\n    }\r\n   \r\n}",
  "sourcePath": "C:/Blockchain/Blockchain/First DAPP/contracts/Voting.sol",
  "compiler": {
    "name": "solc",
    "version": "0.8.6+commit.11564f7e.Emscripten.clang"
  },
  "schemaVersion": "3.4.1",
  "updatedAt": "2021-06-23T16:20:59.580Z",
  "networkType": "ethereum",
  "devdoc": {
    "kind": "dev",
    "methods": {},
    "version": 1
  },
  "userdoc": {
    "kind": "user",
    "methods": {},
    "version": 1
  }
}