{
  "contractName": "VToken",
  "abi": [
    {
      "inputs": [
        {
          "internalType": "string",
          "name": "name_",
          "type": "string"
        },
        {
          "internalType": "string",
          "name": "symbol_",
          "type": "string"
        },
        {
          "internalType": "uint256",
          "name": "maxSupply_",
          "type": "uint256"
        }
      ],
      "stateMutability": "nonpayable",
      "type": "constructor"
    },
    {
      "anonymous": false,
      "inputs": [
        {
          "indexed": true,
          "internalType": "address",
          "name": "owner",
          "type": "address"
        },
        {
          "indexed": true,
          "internalType": "address",
          "name": "spender",
          "type": "address"
        },
        {
          "indexed": false,
          "internalType": "uint256",
          "name": "value",
          "type": "uint256"
        }
      ],
      "name": "Approval",
      "type": "event"
    },
    {
      "anonymous": false,
      "inputs": [
        {
          "indexed": true,
          "internalType": "address",
          "name": "previousOwner",
          "type": "address"
        },
        {
          "indexed": true,
          "internalType": "address",
          "name": "newOwner",
          "type": "address"
        }
      ],
      "name": "OwnershipTransferred",
      "type": "event"
    },
    {
      "anonymous": false,
      "inputs": [
        {
          "indexed": true,
          "internalType": "address",
          "name": "from",
          "type": "address"
        },
        {
          "indexed": true,
          "internalType": "address",
          "name": "to",
          "type": "address"
        },
        {
          "indexed": false,
          "internalType": "uint256",
          "name": "value",
          "type": "uint256"
        }
      ],
      "name": "Transfer",
      "type": "event"
    },
    {
      "stateMutability": "nonpayable",
      "type": "fallback"
    },
    {
      "inputs": [],
      "name": "_maxSupply",
      "outputs": [
        {
          "internalType": "uint256",
          "name": "",
          "type": "uint256"
        }
      ],
      "stateMutability": "view",
      "type": "function",
      "constant": true
    },
    {
      "inputs": [
        {
          "internalType": "address",
          "name": "owner",
          "type": "address"
        },
        {
          "internalType": "address",
          "name": "spender",
          "type": "address"
        }
      ],
      "name": "allowance",
      "outputs": [
        {
          "internalType": "uint256",
          "name": "",
          "type": "uint256"
        }
      ],
      "stateMutability": "view",
      "type": "function",
      "constant": true
    },
    {
      "inputs": [
        {
          "internalType": "address",
          "name": "spender",
          "type": "address"
        },
        {
          "internalType": "uint256",
          "name": "amount",
          "type": "uint256"
        }
      ],
      "name": "approve",
      "outputs": [
        {
          "internalType": "bool",
          "name": "",
          "type": "bool"
        }
      ],
      "stateMutability": "nonpayable",
      "type": "function"
    },
    {
      "inputs": [
        {
          "internalType": "address",
          "name": "account",
          "type": "address"
        }
      ],
      "name": "balanceOf",
      "outputs": [
        {
          "internalType": "uint256",
          "name": "",
          "type": "uint256"
        }
      ],
      "stateMutability": "view",
      "type": "function",
      "constant": true
    },
    {
      "inputs": [],
      "name": "decimals",
      "outputs": [
        {
          "internalType": "uint8",
          "name": "",
          "type": "uint8"
        }
      ],
      "stateMutability": "view",
      "type": "function",
      "constant": true
    },
    {
      "inputs": [
        {
          "internalType": "address",
          "name": "spender",
          "type": "address"
        },
        {
          "internalType": "uint256",
          "name": "subtractedValue",
          "type": "uint256"
        }
      ],
      "name": "decreaseAllowance",
      "outputs": [
        {
          "internalType": "bool",
          "name": "",
          "type": "bool"
        }
      ],
      "stateMutability": "nonpayable",
      "type": "function"
    },
    {
      "inputs": [
        {
          "internalType": "address",
          "name": "spender",
          "type": "address"
        },
        {
          "internalType": "uint256",
          "name": "addedValue",
          "type": "uint256"
        }
      ],
      "name": "increaseAllowance",
      "outputs": [
        {
          "internalType": "bool",
          "name": "",
          "type": "bool"
        }
      ],
      "stateMutability": "nonpayable",
      "type": "function"
    },
    {
      "inputs": [],
      "name": "name",
      "outputs": [
        {
          "internalType": "string",
          "name": "",
          "type": "string"
        }
      ],
      "stateMutability": "view",
      "type": "function",
      "constant": true
    },
    {
      "inputs": [],
      "name": "owner",
      "outputs": [
        {
          "internalType": "address",
          "name": "",
          "type": "address"
        }
      ],
      "stateMutability": "view",
      "type": "function",
      "constant": true
    },
    {
      "inputs": [],
      "name": "renounceOwnership",
      "outputs": [],
      "stateMutability": "nonpayable",
      "type": "function"
    },
    {
      "inputs": [],
      "name": "symbol",
      "outputs": [
        {
          "internalType": "string",
          "name": "",
          "type": "string"
        }
      ],
      "stateMutability": "view",
      "type": "function",
      "constant": true
    },
    {
      "inputs": [],
      "name": "totalSupply",
      "outputs": [
        {
          "internalType": "uint256",
          "name": "",
          "type": "uint256"
        }
      ],
      "stateMutability": "view",
      "type": "function",
      "constant": true
    },
    {
      "inputs": [
        {
          "internalType": "address",
          "name": "recipient",
          "type": "address"
        },
        {
          "internalType": "uint256",
          "name": "amount",
          "type": "uint256"
        }
      ],
      "name": "transfer",
      "outputs": [
        {
          "internalType": "bool",
          "name": "",
          "type": "bool"
        }
      ],
      "stateMutability": "nonpayable",
      "type": "function"
    },
    {
      "inputs": [
        {
          "internalType": "address",
          "name": "sender",
          "type": "address"
        },
        {
          "internalType": "address",
          "name": "recipient",
          "type": "address"
        },
        {
          "internalType": "uint256",
          "name": "amount",
          "type": "uint256"
        }
      ],
      "name": "transferFrom",
      "outputs": [
        {
          "internalType": "bool",
          "name": "",
          "type": "bool"
        }
      ],
      "stateMutability": "nonpayable",
      "type": "function"
    },
    {
      "inputs": [
        {
          "internalType": "address",
          "name": "newOwner",
          "type": "address"
        }
      ],
      "name": "transferOwnership",
      "outputs": [],
      "stateMutability": "nonpayable",
      "type": "function"
    },
    {
      "stateMutability": "payable",
      "type": "receive",
      "payable": true
    },
    {
      "inputs": [],
      "name": "buyToken",
      "outputs": [],
      "stateMutability": "payable",
      "type": "function",
      "payable": true
    },
    {
      "inputs": [],
      "name": "getEthFromSale",
      "outputs": [],
      "stateMutability": "nonpayable",
      "type": "function"
    },
    {
      "inputs": [],
      "name": "killSale",
      "outputs": [],
      "stateMutability": "nonpayable",
      "type": "function"
    },
    {
      "inputs": [
        {
          "internalType": "address",
          "name": "to",
          "type": "address"
        },
        {
          "internalType": "uint256",
          "name": "rewards",
          "type": "uint256"
        }
      ],
      "name": "mintRewards",
      "outputs": [],
      "stateMutability": "nonpayable",
      "type": "function"
    }
  ],
  "bytecode": "0x60806040523480156200001157600080fd5b506040516200266d3803806200266d8339818101604052810190620000379190620002b0565b828260006200004b6200015a60201b60201c565b9050806000806101000a81548173ffffffffffffffffffffffffffffffffffffffff021916908373ffffffffffffffffffffffffffffffffffffffff1602179055508073ffffffffffffffffffffffffffffffffffffffff16600073ffffffffffffffffffffffffffffffffffffffff167f8be0079c531659141344cd1fd0a4f28419497f9722a3daafe3b4186f6b6457e060405160405180910390a3508160049080519060200190620001019291906200016b565b5080600590805190602001906200011a9291906200016b565b5050506200012d6200016260201b60201c565b60ff16600a6200013e919062000404565b816200014b919062000541565b60068190555050505062000727565b600033905090565b60006012905090565b8280546200017990620005e2565b90600052602060002090601f0160209004810192826200019d5760008555620001e9565b82601f10620001b857805160ff1916838001178555620001e9565b82800160010185558215620001e9579182015b82811115620001e8578251825591602001919060010190620001cb565b5b509050620001f89190620001fc565b5090565b5b8082111562000217576000816000905550600101620001fd565b5090565b6000620002326200022c8462000373565b6200034a565b905082815260208101848484011115620002515762000250620006e0565b5b6200025e848285620005ac565b509392505050565b600082601f8301126200027e576200027d620006db565b5b8151620002908482602086016200021b565b91505092915050565b600081519050620002aa816200070d565b92915050565b600080600060608486031215620002cc57620002cb620006ea565b5b600084015167ffffffffffffffff811115620002ed57620002ec620006e5565b5b620002fb8682870162000266565b935050602084015167ffffffffffffffff8111156200031f576200031e620006e5565b5b6200032d8682870162000266565b9250506040620003408682870162000299565b9150509250925092565b60006200035662000369565b905062000364828262000618565b919050565b6000604051905090565b600067ffffffffffffffff821115620003915762000390620006ac565b5b6200039c82620006ef565b9050602081019050919050565b6000808291508390505b6001851115620003fb57808604811115620003d357620003d26200064e565b5b6001851615620003e35780820291505b8081029050620003f38562000700565b9450620003b3565b94509492505050565b60006200041182620005a2565b91506200041e83620005a2565b92506200044d7fffffffffffffffffffffffffffffffffffffffffffffffffffffffffffffffff848462000455565b905092915050565b6000826200046757600190506200053a565b816200047757600090506200053a565b81600181146200049057600281146200049b57620004d1565b60019150506200053a565b60ff841115620004b057620004af6200064e565b5b8360020a915084821115620004ca57620004c96200064e565b5b506200053a565b5060208310610133831016604e8410600b84101617156200050b5782820a9050838111156200050557620005046200064e565b5b6200053a565b6200051a8484846001620003a9565b925090508184048111156200053457620005336200064e565b5b81810290505b9392505050565b60006200054e82620005a2565b91506200055b83620005a2565b9250817fffffffffffffffffffffffffffffffffffffffffffffffffffffffffffffffff04831182151516156200059757620005966200064e565b5b828202905092915050565b6000819050919050565b60005b83811015620005cc578082015181840152602081019050620005af565b83811115620005dc576000848401525b50505050565b60006002820490506001821680620005fb57607f821691505b602082108114156200061257620006116200067d565b5b50919050565b6200062382620006ef565b810181811067ffffffffffffffff82111715620006455762000644620006ac565b5b80604052505050565b7f4e487b7100000000000000000000000000000000000000000000000000000000600052601160045260246000fd5b7f4e487b7100000000000000000000000000000000000000000000000000000000600052602260045260246000fd5b7f4e487b7100000000000000000000000000000000000000000000000000000000600052604160045260246000fd5b600080fd5b600080fd5b600080fd5b600080fd5b6000601f19601f8301169050919050565b60008160011c9050919050565b6200071881620005a2565b81146200072457600080fd5b50565b611f3680620007376000396000f3fe6080604052600436106101185760003560e01c806370a08231116100a0578063a457c2d711610064578063a457c2d714610398578063a4821719146103d5578063a9059cbb146103df578063dd62ed3e1461041c578063f2fde38b1461045957610122565b806370a08231146102d7578063715018a61461031457806388eaea071461032b5780638da5cb5b1461034257806395d89b411461036d57610122565b806323b872dd116100e757806323b872dd146101f2578063313ce5671461022f578063395093511461025a578063400f3649146102975780636a20de92146102ae57610122565b806306fdde0314610134578063095ea7b31461015f57806318160ddd1461019c57806322f4596f146101c757610122565b3661012257600080fd5b34801561012e57600080fd5b50600080fd5b34801561014057600080fd5b50610149610482565b60405161015691906117d3565b60405180910390f35b34801561016b57600080fd5b5061018660048036038101906101819190611567565b610514565b60405161019391906117b8565b60405180910390f35b3480156101a857600080fd5b506101b1610532565b6040516101be9190611955565b60405180910390f35b3480156101d357600080fd5b506101dc61053c565b6040516101e99190611955565b60405180910390f35b3480156101fe57600080fd5b5061021960048036038101906102149190611514565b610542565b60405161022691906117b8565b60405180910390f35b34801561023b57600080fd5b50610244610643565b6040516102519190611970565b60405180910390f35b34801561026657600080fd5b50610281600480360381019061027c9190611567565b61064c565b60405161028e91906117b8565b60405180910390f35b3480156102a357600080fd5b506102ac6106f8565b005b3480156102ba57600080fd5b506102d560048036038101906102d09190611567565b6107c4565b005b3480156102e357600080fd5b506102fe60048036038101906102f991906114a7565b61084e565b60405161030b9190611955565b60405180910390f35b34801561032057600080fd5b50610329610897565b005b34801561033757600080fd5b506103406109d1565b005b34801561034e57600080fd5b50610357610ab8565b604051610364919061179d565b60405180910390f35b34801561037957600080fd5b50610382610ae1565b60405161038f91906117d3565b60405180910390f35b3480156103a457600080fd5b506103bf60048036038101906103ba9190611567565b610b73565b6040516103cc91906117b8565b60405180910390f35b6103dd610c67565b005b3480156103eb57600080fd5b5061040660048036038101906104019190611567565b610c80565b60405161041391906117b8565b60405180910390f35b34801561042857600080fd5b50610443600480360381019061043e91906114d4565b610c9e565b6040516104509190611955565b60405180910390f35b34801561046557600080fd5b50610480600480360381019061047b91906114a7565b610d25565b005b60606004805461049190611b13565b80601f01602080910402602001604051908101604052809291908181526020018280546104bd90611b13565b801561050a5780601f106104df5761010080835404028352916020019161050a565b820191906000526020600020905b8154815290600101906020018083116104ed57829003601f168201915b5050505050905090565b6000610528610521610ece565b8484610ed6565b6001905092915050565b6000600354905090565b60065481565b600061054f8484846110a1565b6000600260008673ffffffffffffffffffffffffffffffffffffffff1673ffffffffffffffffffffffffffffffffffffffff168152602001908152602001600020600061059a610ece565b73ffffffffffffffffffffffffffffffffffffffff1673ffffffffffffffffffffffffffffffffffffffff1681526020019081526020016000205490508281101561061a576040517f08c379a000000000000000000000000000000000000000000000000000000000815260040161061190611875565b60405180910390fd5b61063785610626610ece565b85846106329190611a57565b610ed6565b60019150509392505050565b60006012905090565b60006106ee610659610ece565b848460026000610667610ece565b73ffffffffffffffffffffffffffffffffffffffff1673ffffffffffffffffffffffffffffffffffffffff16815260200190815260200160002060008873ffffffffffffffffffffffffffffffffffffffff1673ffffffffffffffffffffffffffffffffffffffff168152602001908152602001600020546106e991906119a7565b610ed6565b6001905092915050565b610700610ece565b73ffffffffffffffffffffffffffffffffffffffff1661071e610ab8565b73ffffffffffffffffffffffffffffffffffffffff1614610774576040517f08c379a000000000000000000000000000000000000000000000000000000000815260040161076b90611895565b60405180910390fd5b61077c610ab8565b73ffffffffffffffffffffffffffffffffffffffff166108fc479081150290604051600060405180830381858888f193505050501580156107c1573d6000803e3d6000fd5b50565b6107cc610ece565b73ffffffffffffffffffffffffffffffffffffffff166107ea610ab8565b73ffffffffffffffffffffffffffffffffffffffff1614610840576040517f08c379a000000000000000000000000000000000000000000000000000000000815260040161083790611895565b60405180910390fd5b61084a8282611323565b5050565b6000600160008373ffffffffffffffffffffffffffffffffffffffff1673ffffffffffffffffffffffffffffffffffffffff168152602001908152602001600020549050919050565b61089f610ece565b73ffffffffffffffffffffffffffffffffffffffff166108bd610ab8565b73ffffffffffffffffffffffffffffffffffffffff1614610913576040517f08c379a000000000000000000000000000000000000000000000000000000000815260040161090a90611895565b60405180910390fd5b600073ffffffffffffffffffffffffffffffffffffffff1660008054906101000a900473ffffffffffffffffffffffffffffffffffffffff1673ffffffffffffffffffffffffffffffffffffffff167f8be0079c531659141344cd1fd0a4f28419497f9722a3daafe3b4186f6b6457e060405160405180910390a360008060006101000a81548173ffffffffffffffffffffffffffffffffffffffff021916908373ffffffffffffffffffffffffffffffffffffffff160217905550565b6109d9610ece565b73ffffffffffffffffffffffffffffffffffffffff166109f7610ab8565b73ffffffffffffffffffffffffffffffffffffffff1614610a4d576040517f08c379a0000000000000000000000000000000000000000000000000000000008152600401610a4490611895565b60405180910390fd5b610a55610532565b60065414610a98576040517f08c379a0000000000000000000000000000000000000000000000000000000008152600401610a8f90611935565b60405180910390fd5b610aa0610ab8565b73ffffffffffffffffffffffffffffffffffffffff16ff5b60008060009054906101000a900473ffffffffffffffffffffffffffffffffffffffff16905090565b606060058054610af090611b13565b80601f0160208091040260200160405190810160405280929190818152602001828054610b1c90611b13565b8015610b695780601f10610b3e57610100808354040283529160200191610b69565b820191906000526020600020905b815481529060010190602001808311610b4c57829003601f168201915b5050505050905090565b60008060026000610b82610ece565b73ffffffffffffffffffffffffffffffffffffffff1673ffffffffffffffffffffffffffffffffffffffff16815260200190815260200160002060008573ffffffffffffffffffffffffffffffffffffffff1673ffffffffffffffffffffffffffffffffffffffff16815260200190815260200160002054905082811015610c3f576040517f08c379a0000000000000000000000000000000000000000000000000000000008152600401610c36906118f5565b60405180910390fd5b610c5c610c4a610ece565b858584610c579190611a57565b610ed6565b600191505092915050565b610c7e336103e834610c7991906119fd565b611323565b565b6000610c94610c8d610ece565b84846110a1565b6001905092915050565b6000600260008473ffffffffffffffffffffffffffffffffffffffff1673ffffffffffffffffffffffffffffffffffffffff16815260200190815260200160002060008373ffffffffffffffffffffffffffffffffffffffff1673ffffffffffffffffffffffffffffffffffffffff16815260200190815260200160002054905092915050565b610d2d610ece565b73ffffffffffffffffffffffffffffffffffffffff16610d4b610ab8565b73ffffffffffffffffffffffffffffffffffffffff1614610da1576040517f08c379a0000000000000000000000000000000000000000000000000000000008152600401610d9890611895565b60405180910390fd5b600073ffffffffffffffffffffffffffffffffffffffff168173ffffffffffffffffffffffffffffffffffffffff161415610e11576040517f08c379a0000000000000000000000000000000000000000000000000000000008152600401610e0890611815565b60405180910390fd5b8073ffffffffffffffffffffffffffffffffffffffff1660008054906101000a900473ffffffffffffffffffffffffffffffffffffffff1673ffffffffffffffffffffffffffffffffffffffff167f8be0079c531659141344cd1fd0a4f28419497f9722a3daafe3b4186f6b6457e060405160405180910390a3806000806101000a81548173ffffffffffffffffffffffffffffffffffffffff021916908373ffffffffffffffffffffffffffffffffffffffff16021790555050565b600033905090565b600073ffffffffffffffffffffffffffffffffffffffff168373ffffffffffffffffffffffffffffffffffffffff161415610f46576040517f08c379a0000000000000000000000000000000000000000000000000000000008152600401610f3d906118d5565b60405180910390fd5b600073ffffffffffffffffffffffffffffffffffffffff168273ffffffffffffffffffffffffffffffffffffffff161415610fb6576040517f08c379a0000000000000000000000000000000000000000000000000000000008152600401610fad90611835565b60405180910390fd5b80600260008573ffffffffffffffffffffffffffffffffffffffff1673ffffffffffffffffffffffffffffffffffffffff16815260200190815260200160002060008473ffffffffffffffffffffffffffffffffffffffff1673ffffffffffffffffffffffffffffffffffffffff168152602001908152602001600020819055508173ffffffffffffffffffffffffffffffffffffffff168373ffffffffffffffffffffffffffffffffffffffff167f8c5be1e5ebec7d5bd14f71427d1e84f3dd0314c0f7b2291e5b200ac8c7c3b925836040516110949190611955565b60405180910390a3505050565b600073ffffffffffffffffffffffffffffffffffffffff168373ffffffffffffffffffffffffffffffffffffffff161415611111576040517f08c379a0000000000000000000000000000000000000000000000000000000008152600401611108906118b5565b60405180910390fd5b600073ffffffffffffffffffffffffffffffffffffffff168273ffffffffffffffffffffffffffffffffffffffff161415611181576040517f08c379a0000000000000000000000000000000000000000000000000000000008152600401611178906117f5565b60405180910390fd5b61118c838383611478565b6000600160008573ffffffffffffffffffffffffffffffffffffffff1673ffffffffffffffffffffffffffffffffffffffff16815260200190815260200160002054905081811015611213576040517f08c379a000000000000000000000000000000000000000000000000000000000815260040161120a90611855565b60405180910390fd5b818161121f9190611a57565b600160008673ffffffffffffffffffffffffffffffffffffffff1673ffffffffffffffffffffffffffffffffffffffff1681526020019081526020016000208190555081600160008573ffffffffffffffffffffffffffffffffffffffff1673ffffffffffffffffffffffffffffffffffffffff16815260200190815260200160002060008282546112b191906119a7565b925050819055508273ffffffffffffffffffffffffffffffffffffffff168473ffffffffffffffffffffffffffffffffffffffff167fddf252ad1be2c89b69c2b068fc378daa952ba7f163c4a11628f55a4df523b3ef846040516113159190611955565b60405180910390a350505050565b600073ffffffffffffffffffffffffffffffffffffffff168273ffffffffffffffffffffffffffffffffffffffff161415611393576040517f08c379a000000000000000000000000000000000000000000000000000000000815260040161138a90611915565b60405180910390fd5b61139f60008383611478565b80600360008282546113b191906119a7565b9250508190555080600160008473ffffffffffffffffffffffffffffffffffffffff1673ffffffffffffffffffffffffffffffffffffffff168152602001908152602001600020600082825461140791906119a7565b925050819055508173ffffffffffffffffffffffffffffffffffffffff16600073ffffffffffffffffffffffffffffffffffffffff167fddf252ad1be2c89b69c2b068fc378daa952ba7f163c4a11628f55a4df523b3ef8360405161146c9190611955565b60405180910390a35050565b505050565b60008135905061148c81611ed2565b92915050565b6000813590506114a181611ee9565b92915050565b6000602082840312156114bd576114bc611ba3565b5b60006114cb8482850161147d565b91505092915050565b600080604083850312156114eb576114ea611ba3565b5b60006114f98582860161147d565b925050602061150a8582860161147d565b9150509250929050565b60008060006060848603121561152d5761152c611ba3565b5b600061153b8682870161147d565b935050602061154c8682870161147d565b925050604061155d86828701611492565b9150509250925092565b6000806040838503121561157e5761157d611ba3565b5b600061158c8582860161147d565b925050602061159d85828601611492565b9150509250929050565b6115b081611a8b565b82525050565b6115bf81611a9d565b82525050565b60006115d08261198b565b6115da8185611996565b93506115ea818560208601611ae0565b6115f381611ba8565b840191505092915050565b600061160b602383611996565b915061161682611bb9565b604082019050919050565b600061162e602683611996565b915061163982611c08565b604082019050919050565b6000611651602283611996565b915061165c82611c57565b604082019050919050565b6000611674602683611996565b915061167f82611ca6565b604082019050919050565b6000611697602883611996565b91506116a282611cf5565b604082019050919050565b60006116ba602083611996565b91506116c582611d44565b602082019050919050565b60006116dd602583611996565b91506116e882611d6d565b604082019050919050565b6000611700602483611996565b915061170b82611dbc565b604082019050919050565b6000611723602583611996565b915061172e82611e0b565b604082019050919050565b6000611746601f83611996565b915061175182611e5a565b602082019050919050565b6000611769602e83611996565b915061177482611e83565b604082019050919050565b61178881611ac9565b82525050565b61179781611ad3565b82525050565b60006020820190506117b260008301846115a7565b92915050565b60006020820190506117cd60008301846115b6565b92915050565b600060208201905081810360008301526117ed81846115c5565b905092915050565b6000602082019050818103600083015261180e816115fe565b9050919050565b6000602082019050818103600083015261182e81611621565b9050919050565b6000602082019050818103600083015261184e81611644565b9050919050565b6000602082019050818103600083015261186e81611667565b9050919050565b6000602082019050818103600083015261188e8161168a565b9050919050565b600060208201905081810360008301526118ae816116ad565b9050919050565b600060208201905081810360008301526118ce816116d0565b9050919050565b600060208201905081810360008301526118ee816116f3565b9050919050565b6000602082019050818103600083015261190e81611716565b9050919050565b6000602082019050818103600083015261192e81611739565b9050919050565b6000602082019050818103600083015261194e8161175c565b9050919050565b600060208201905061196a600083018461177f565b92915050565b6000602082019050611985600083018461178e565b92915050565b600081519050919050565b600082825260208201905092915050565b60006119b282611ac9565b91506119bd83611ac9565b9250827fffffffffffffffffffffffffffffffffffffffffffffffffffffffffffffffff038211156119f2576119f1611b45565b5b828201905092915050565b6000611a0882611ac9565b9150611a1383611ac9565b9250817fffffffffffffffffffffffffffffffffffffffffffffffffffffffffffffffff0483118215151615611a4c57611a4b611b45565b5b828202905092915050565b6000611a6282611ac9565b9150611a6d83611ac9565b925082821015611a8057611a7f611b45565b5b828203905092915050565b6000611a9682611aa9565b9050919050565b60008115159050919050565b600073ffffffffffffffffffffffffffffffffffffffff82169050919050565b6000819050919050565b600060ff82169050919050565b60005b83811015611afe578082015181840152602081019050611ae3565b83811115611b0d576000848401525b50505050565b60006002820490506001821680611b2b57607f821691505b60208210811415611b3f57611b3e611b74565b5b50919050565b7f4e487b7100000000000000000000000000000000000000000000000000000000600052601160045260246000fd5b7f4e487b7100000000000000000000000000000000000000000000000000000000600052602260045260246000fd5b600080fd5b6000601f19601f8301169050919050565b7f45524332303a207472616e7366657220746f20746865207a65726f206164647260008201527f6573730000000000000000000000000000000000000000000000000000000000602082015250565b7f4f776e61626c653a206e6577206f776e657220697320746865207a65726f206160008201527f6464726573730000000000000000000000000000000000000000000000000000602082015250565b7f45524332303a20617070726f766520746f20746865207a65726f20616464726560008201527f7373000000000000000000000000000000000000000000000000000000000000602082015250565b7f45524332303a207472616e7366657220616d6f756e742065786365656473206260008201527f616c616e63650000000000000000000000000000000000000000000000000000602082015250565b7f45524332303a207472616e7366657220616d6f756e742065786365656473206160008201527f6c6c6f77616e6365000000000000000000000000000000000000000000000000602082015250565b7f4f776e61626c653a2063616c6c6572206973206e6f7420746865206f776e6572600082015250565b7f45524332303a207472616e736665722066726f6d20746865207a65726f20616460008201527f6472657373000000000000000000000000000000000000000000000000000000602082015250565b7f45524332303a20617070726f76652066726f6d20746865207a65726f2061646460008201527f7265737300000000000000000000000000000000000000000000000000000000602082015250565b7f45524332303a2064656372656173656420616c6c6f77616e63652062656c6f7760008201527f207a65726f000000000000000000000000000000000000000000000000000000602082015250565b7f45524332303a206d696e7420746f20746865207a65726f206164647265737300600082015250565b7f53616c65206e6f7420636f6d706c6574652c2066756e6374696f6e2063616e6e60008201527f6f74206265206578656375746564000000000000000000000000000000000000602082015250565b611edb81611a8b565b8114611ee657600080fd5b50565b611ef281611ac9565b8114611efd57600080fd5b5056fea2646970667358221220830621d87a8e6807f1d9a324ea86a8881a1851c629f4b5031769e2c08543cde864736f6c63430008050033",
  "immutableReferences": {},
  "source": "// SPDX-License-Identifier: MIT\r\n\r\npragma solidity >=0.7.0 <0.9.0;\r\n\r\nimport \"@openzeppelin/contracts/token/ERC20/ERC20.sol\";\r\nimport \"@openzeppelin/contracts/access/Ownable.sol\";\r\n\r\ncontract VToken is Ownable,ERC20 {\r\n   \r\n    uint256 public _maxSupply;\r\n\r\n    constructor (\r\n        string memory name_,\r\n        string memory symbol_,\r\n        uint256 maxSupply_\r\n    ) ERC20(name_, symbol_) {\r\n        _maxSupply = maxSupply_ * (10 ** uint256(decimals()));\r\n    }\r\n   \r\n    function buyToken() external payable {\r\n        _mint(msg.sender, msg.value * 1000); //what is msg.value represent?\r\n    }\r\n   \r\n    function getEthFromSale() public onlyOwner {\r\n        payable(owner()).transfer(address(this).balance);\r\n    }\r\n   \r\n    function killSale() public onlyOwner saleComplete {\r\n        selfdestruct(payable(owner()));\r\n    }\r\n   \r\n    function mintRewards(address to, uint rewards) public onlyOwner {\r\n        _mint(to, rewards);\r\n    }\r\n   \r\n    modifier saleComplete() {\r\n        require(_maxSupply == totalSupply(), \"Sale not complete, function cannot be executed\");\r\n        _;\r\n    }\r\n   \r\n    function _beforeTokenTransfer(\r\n        address from,\r\n        address to,\r\n        uint256 amount\r\n    ) internal override {\r\n        //_burn(from, amount/50);\r\n    }\r\n   \r\n    receive() external payable{\r\n        revert();\r\n    }\r\n   \r\n    fallback() external {\r\n        revert();\r\n    }\r\n}",
  "sourcePath": "C:/Blockchain/First DAPP/contracts/VToken.sol",
  "compiler": {
    "name": "solc",
    "version": "0.8.5+commit.a4f2e591.Emscripten.clang"
  },
  "schemaVersion": "3.4.1",
  "updatedAt": "2021-06-18T01:17:39.975Z",
  "networkType": "ethereum",
  "devdoc": {
    "kind": "dev",
    "methods": {
      "allowance(address,address)": {
        "details": "See {IERC20-allowance}."
      },
      "approve(address,uint256)": {
        "details": "See {IERC20-approve}. Requirements: - `spender` cannot be the zero address."
      },
      "balanceOf(address)": {
        "details": "See {IERC20-balanceOf}."
      },
      "decimals()": {
        "details": "Returns the number of decimals used to get its user representation. For example, if `decimals` equals `2`, a balance of `505` tokens should be displayed to a user as `5,05` (`505 / 10 ** 2`). Tokens usually opt for a value of 18, imitating the relationship between Ether and Wei. This is the value {ERC20} uses, unless this function is overridden; NOTE: This information is only used for _display_ purposes: it in no way affects any of the arithmetic of the contract, including {IERC20-balanceOf} and {IERC20-transfer}."
      },
      "decreaseAllowance(address,uint256)": {
        "details": "Atomically decreases the allowance granted to `spender` by the caller. This is an alternative to {approve} that can be used as a mitigation for problems described in {IERC20-approve}. Emits an {Approval} event indicating the updated allowance. Requirements: - `spender` cannot be the zero address. - `spender` must have allowance for the caller of at least `subtractedValue`."
      },
      "increaseAllowance(address,uint256)": {
        "details": "Atomically increases the allowance granted to `spender` by the caller. This is an alternative to {approve} that can be used as a mitigation for problems described in {IERC20-approve}. Emits an {Approval} event indicating the updated allowance. Requirements: - `spender` cannot be the zero address."
      },
      "name()": {
        "details": "Returns the name of the token."
      },
      "owner()": {
        "details": "Returns the address of the current owner."
      },
      "renounceOwnership()": {
        "details": "Leaves the contract without owner. It will not be possible to call `onlyOwner` functions anymore. Can only be called by the current owner. NOTE: Renouncing ownership will leave the contract without an owner, thereby removing any functionality that is only available to the owner."
      },
      "symbol()": {
        "details": "Returns the symbol of the token, usually a shorter version of the name."
      },
      "totalSupply()": {
        "details": "See {IERC20-totalSupply}."
      },
      "transfer(address,uint256)": {
        "details": "See {IERC20-transfer}. Requirements: - `recipient` cannot be the zero address. - the caller must have a balance of at least `amount`."
      },
      "transferFrom(address,address,uint256)": {
        "details": "See {IERC20-transferFrom}. Emits an {Approval} event indicating the updated allowance. This is not required by the EIP. See the note at the beginning of {ERC20}. Requirements: - `sender` and `recipient` cannot be the zero address. - `sender` must have a balance of at least `amount`. - the caller must have allowance for ``sender``'s tokens of at least `amount`."
      },
      "transferOwnership(address)": {
        "details": "Transfers ownership of the contract to a new account (`newOwner`). Can only be called by the current owner."
      }
    },
    "version": 1
  },
  "userdoc": {
    "kind": "user",
    "methods": {},
    "version": 1
  }
}